:100000000C942A000C9447000C9447000C94470071
:100010000C9447000C9447000C9447000C94470044
:100020000C9447000C9447000C94E9090C94100AB6
:100030000C9447000C9447000C9447000C94470024
:100040000C9447000C9447000C9447000C94470014
:100050000C94470011241FBECFE5D8E0DEBFCDBF12
:1000600010E0A0E6B0E0E8EEF4E102C005900D92E9
:10007000AC3EB107D9F721E0ACEEB0E001C01D9273
:10008000A031B207E1F70E94370A0C94720A0C946F
:1000900000008091EC0080FF14C097EB899F902DA9
:1000A00011249532F0F090916100923039F0913046
:1000B00029F08A3010F01092EC0008959093ED0032
:1000C000F8CF0E94EA068093EF000E949F0780937A
:1000D000EE008091EC0097EB899F902D11249532D2
:1000E00010F761E080E20E94F00361E08DE790E0AC
:1000F0000E944E0568E080E00E94720561E085E89C
:1001000090E00E944E0568E080E00E94720561E088
:100110008091EF000E94CD0560E081E00E947205B1
:1001200061E08EE890E00E944E0561E08091EE0073
:100130000E94CD0560E080E00E9472058091EC0095
:10014000B2CF809102018F5F80930201883C09F059
:10015000089581E080930001109201011092020144
:1001600008950E94350940916700509168006091A0
:10017000690070916A0080916B000E94B307409102
:1001800062005091630060916400709165008091FD
:1001900066000E943D090E946B0363E083E00E94B9
:1001A000270664E083E00E94270665E083E00E9462
:1001B000270662E083E00E94FD0661E083E00E9482
:1001C000120760E083E00E94270781E00E94A204FA
:1001D00082E00E948D0780E00E94D8060E94780786
:1001E0000E947F070E94860768E387E990E00E94EB
:1001F0004E052FE387E79BE1215080409040E1F7D7
:1002000000C000000895CF93DF93C0910001D0910A
:100210000101C130D10519F0DF91CF9108951092FD
:100220000001109201018091FD008F5F8093FD001D
:100230002091FE003091FF002230310509F46EC09C
:1002400080F12330310509F49EC02430310521F7B7
:10025000837009F4F2C08091FC00863408F0F6C087
:100260008B3008F486C18091FB00803108F44CC1CA
:100270008091FC008B508B3378F641E064E083E0A2
:100280000E94470641E065E083E00E94470641E0A6
:1002900063E083E00E9447061092FE001092FF0088
:1002A000BBCF232B09F488C060E083E00E94630386
:1002B0008093F20061E083E00E9463038093F10089
:1002C00062E083E00E9463038093F0001092F500E7
:1002D0001092F4009091F200913009F4F3C09091E3
:1002E000F100913009F480C1813009F404C180919A
:1002F000FC00863428F48091FB00803108F043C173
:1003000084E08093FE001092FF008091F1008093C2
:10031000F5008091F0008093F4007ECF8091FC0086
:1003200090916F00981708F483C090916E00891720
:1003300008F0FAC00E9486070E946A079091FB00AD
:1003400080916D00981708F0ECC00E9463078091BF
:10035000FC008B508B3308F0D1C08091FB008031C2
:1003600008F4CCC00E94B1038A3209F055CF0E9434
:1003700086070E947F070E94780783E08093FE0033
:100380001092FF0049CF0E94B1038093F3008111C6
:100390002DC080916C00811509F43ECF0E94A80504
:1003A0008091F9009091FA00019708F40AC109F4CC
:1003B0002DC110926C0030CF80FF79C09DEC899FD9
:1003C000902D1124943308F44BC09091700092301A
:1003D00049F1913029F421E02093FE001092FF00B2
:1003E0008A3008F419CF1092FD0016CF2091F90041
:1003F0003091FA002130310508F09BC09FEC980F36
:10040000953008F0D1C080538093F8001092F60028
:100410001092F700C093F900D093FA0081E0809326
:100420006C00BCCF22E02093FE001092FF00D8CFDA
:100430000E9471070E947F0781CF0E94EA06809385
:10044000FC000E949F078093FB0005CF41E063E022
:1004500083E00E943F060E9471070E947F0703CF3E
:1004600060E080E00E94720568E387EA90E00E9405
:100470004E0568E080E00E94720568E38091FC0010
:100480000E94CD0560E081E00E94720568E38EEA7B
:1004900090E00E944E0568E081E00E94720568E3EA
:1004A0008091FB000E94CD058091FD008ECF0E94BF
:1004B000EA068093FC000E949F078093FB008091D6
:1004C000FD007CCF60E083E00E946303811509F4A6
:1004D00096C08091F100813029F48091F50081155A
:1004E00009F482C08091F000813009F000CF809142
:1004F000F4008111FCCE0E943C07F9CE84E0809389
:10050000FE001092FF0088CE41E065E083E00E948B
:100510003F060E9463078091FB00803108F47CCE87
:10052000A7CE0E94780713CF0E9486070E947F07FC
:1005300005CF09F02ECF90ED980F9A3008F079C0D2
:100540004091F6005091F7009A01220F331F220FBD
:10055000331F240F351F220F331F20533109280F5B
:10056000311D2093F6003093F70081E080936C00FA
:1005700015CF41E064E083E00E943F060E946A07D5
:100580000E94860770CE0E94B1038A3209F0BDCE68
:100590000E9486070E947F070E94780783E080936D
:1005A000FE001092FF00B1CE8A3209F0F2CE109216
:1005B000FE001092FF0081E080936C000E94A8056D
:1005C000E8CE60E080E00E94720568E386EB90E090
:1005D0000E944E0560E081E00E94720568E388ECAD
:1005E00090E00E944E05E5CE61E083E00E94630347
:1005F000811178CF0E9486070E94490773CF0E941D
:1006000056070E947F078091F0006ECF60E080E087
:100610000E94720568E38BED90E00E944E0560E059
:1006200081E00E94720568E38091F6000E94CD058A
:10063000C0CE8A3259F0833209F0ABCE1092F90065
:100640001092FA0081E080936C00A8CE8091F800AF
:100650008330C1F050F48130D1F0823009F099CE6E
:100660008091F60080936E0094CE853009F091CE93
:100670008091F6009091F700019771F081E08093EE
:10068000700087CE8091F60080936D0082CE8091BD
:10069000F60080936F007DCE82E08093700079CE6B
:1006A000CF93DF9300D0CDB7DEB789836A8340E074
:1006B0000E94030840E06A8189810F900F90DF91CA
:1006C000CF910C94510890E002C0959587956A955A
:1006D000E2F78170089541E060E082E00E94030843
:1006E00041E061E082E00E94030841E062E082E0D4
:1006F0000E94030841E060E082E00E94510841E06E
:1007000061E082E00E94510841E062E082E00E94E4
:10071000510840E063E082E00E94030840E064E0AA
:1007200082E00E94030840E065E082E00E94030846
:1007300040E066E082E00E94030841E063E082E07E
:100740000E94510841E064E082E00E94510841E0CB
:1007500065E082E00E94510841E066E082E00C948E
:1007600051080F931F93CF93DF930F92CDB7DEB74E
:10077000198200E040E0602F82E00E94510813E0FF
:10078000AE014F5F5F4F612F82E00E949F08898119
:10079000811591F01F5F173099F741E0602F82E0DB
:1007A0000E9451080F5F033029F78FEF0F90DF9100
:1007B000CF911F910F910895812F8350990BBC0108
:1007C000880F991F860F971F8F589F4FFC01E00FCE
:1007D000F11D80810F90DF91CF911F910F910895AE
:1007E000CF93DF930F92CDB7DEB78983613081F16C
:1007F00058F5C09AC19888B38F709981907F892BE2
:1008000088BBC29A8BED95E00197F1F700C000001C
:10081000C2988BED95E00197F1F700C0000098B306
:1008200089818295807F9F70892B88BBC29A8BEDCE
:1008300095E00197F1F700C00000C29887EB9BE0BC
:100840000197F1F700C000000F90DF91CF9108955C
:1008500041E060E080E00E94510840E061E080E01B
:100860000E945108698182E00E948F0841E062E0A5
:1008700080E00E9451088BED95E00197F1F700C0F0
:10088000000040E062E080E00F90DF91CF910C9497
:100890005108CF93DF930F92CDB7DEB789836130D4
:1008A00081F158F5C098C19888B38F709981907F75
:1008B000892B88BBC29A8BED95E00197F1F700C0B8
:1008C0000000C2988BED95E00197F1F700C00000A1
:1008D00098B389818295807F9F70892B88BBC29A4B
:1008E0008BED95E00197F1F700C00000C29887EB0F
:1008F0009BE00197F1F700C000000F90DF91CF91CE
:10090000089540E060E080E00E94510840E061E02E
:1009100080E00E945108698182E00E948F0841E0D6
:1009200062E080E00E9451088BED95E00197F1F7BD
:1009300000C0000040E062E080E00F90DF91CF91C6
:100940000C945108813009F467C008F0089541E023
:1009500060E00E94030841E061E080E00E9403083B
:1009600041E062E080E00E94030841E064E082E050
:100970000E94030841E065E082E00E94030841E034
:1009800066E082E00E94030841E067E082E00E94A6
:10099000030883E19DEC0197F1F700C0000060E0DF
:1009A00083E30E9449048BE49DE10197F1F700C0C5
:1009B000000060E082E30E9449048BED95E001971E
:1009C000F1F700C0000060E088E20E9449048BED6E
:1009D00095E00197F1F700C0000060E086E00E941A
:1009E00049048BED95E00197F1F700C0000060E04D
:1009F00081E00E94490487EB9BE00197F1F700C07A
:100A0000000060E084E00E9449048BED95E00197CE
:100A1000F1F700C00000089541E060E080E00E942E
:100A2000030841E061E080E00E94030841E062E0E9
:100A300080E00E9403086FEF82E00E94410883E19A
:100A40009DEC0197F1F700C0000061E088E30E948F
:100A500049048BED95E00197F1F700C0000061E0DB
:100A60008EE00E9449048BED95E00197F1F700C0FC
:100A7000000061E081E00E94490487EB9BE0019760
:100A8000F1F700C0000061E085E00E9449048BEDB1
:100A900095E00197F1F700C0000008950F931F93B0
:100AA000CF93DF9300D0CDB7DEB78C016983009779
:100AB00091F0FC018081811571F01A8269810E9498
:100AC000F003FA81FF5FFA83F8018A81E80FF11DD4
:100AD00080818111F3CF0F900F90DF91CF911F9103
:100AE0000F910895CF93DF930F92CDB7DEB781308A
:100AF00028F019F080E8898303C0605C606869832E
:100B000040E060E080E00E94510840E061E080E069
:100B10000E945108698182E00E948F0841E062E0F2
:100B200080E00E9451088BED95E00197F1F700C03D
:100B3000000040E062E080E00E9451088BED95E00B
:100B40000197F1F700C000000F90DF91CF91089559
:100B500040E060E080E00E94510840E061E080E019
:100B60000E94510861E082E00E948F0841E062E04B
:100B700080E00E9451088BED95E00197F1F700C0ED
:100B8000000040E062E080E00E94510887EB9BE0BB
:100B90000197F1F700C000000895EF92FF920F93C4
:100BA0001F93CF93DF93CDB7DEB72B970FB6F89493
:100BB000DEBF0FBECDBF6B878115D1F18E010F5FF8
:100BC0001F4FF80140E050E03DEC839F912D112430
:100BD000969596959695292F220F220F290F220F71
:100BE000682F621B262F205D2193282F892FBA01A1
:100BF0004F5F5F4F2A3048F778018FEFE81AF80A05
:100C0000E60EF71E6B85F70182917F010E94F003CB
:100C10000E151F05B9F72B960FB6F894DEBF0FBE61
:100C2000CDBFDF91CF911F910F91FF90EF9008956D
:100C300080E32B960FB6F894DEBF0FBECDBFDF91D9
:100C4000CF911F910F91FF90EF900C94F0038130A2
:100C500030F069F0823039F0833069F008958AB35A
:100C600041E00C94030884B341E00C94030887B37B
:100C700041E00C94030881B341E00C940308413037
:100C800021F0423009F0089540E00C9451084130C1
:100C900019F0423021F0089540E00C94510841E0F1
:100CA0000C945108CF93DF93C82FD62F613068F48E
:100CB0008130F8F440E06C2F80E00E945108CF5F53
:100CC000C830C1F7DF91CF910895E1F78130C0F1CD
:100CD00009F464C0823009F457C0833099F7C0E04A
:100CE00041E06C2F83E00E945108CF5FC830C1F70C
:100CF000E9CFA9F08230B1F1833021F740E06D2FC8
:100D000083E00E945108DF5FD830E1F240E06D2FB0
:100D100083E00E945108DF5FD83081F7D3CF40E0F5
:100D20006D2F81E00E945108DF5FD83059F240E01A
:100D30006D2F81E00E945108DF5FD83081F7C2CF6C
:100D400041E06C2F80E00E945108CF5FC83009F469
:100D5000B9CF41E06C2F80E00E945108CF5FC830CE
:100D600079F7B0CF40E06D2F82E00E945108DF5F3D
:100D7000D83009F4A7CF40E06D2F82E00E945108DF
:100D8000DF5FD83079F79ECFC0E041E06C2F82E082
:100D90000E945108CF5FC830C1F794CFC0E041E056
:100DA0006C2F81E00E945108CF5FC830C1F78ACF15
:100DB000CF93DF930F92CDB7DEB7898340E0682FE2
:100DC00080E00E9403088981809303010F90DF91E6
:100DD000CF910895809103010E94F3079C01A4EF35
:100DE000B1E00E94410AA92F982F872FA6959795C9
:100DF0008795A695979587950895CF93DF9300D013
:100E0000CDB7DEB789836A8340E00E9403088981F9
:100E1000809309018A81809308010F900F90DF91E0
:100E2000CF910895CF93DF9300D0CDB7DEB78983FC
:100E30006A8340E00E9403088981809307018A81C8
:100E4000809306010F900F90DF91CF910895CF937B
:100E5000DF9300D0CDB7DEB789836A8340E00E947C
:100E600003088981809305018A81809304010F9092
:100E70000F90DF91CF9108958091080121E001C08A
:100E8000220F8A95EAF78091090182278093090150
:100E900008958091060121E001C0220F8A95EAF7AA
:100EA00080910701822780930701089580910401B2
:100EB00021E001C0220F8A95EAF78091050182277F
:100EC00080930501089541E0609108018091090136
:100ED0000C94510841E060910601809107010C9447
:100EE000510841E060910401809105010C94510882
:100EF00040E060910801809109010C94510840E0A4
:100F000060910601809107010C94510840E06091C6
:100F10000401809105010C945108CF93DF930F9247
:100F2000CDB7DEB7898340E0682F80E00E940308D8
:100F3000898180930A010F90DF91CF91089580916C
:100F40000A010E94F307282F30E0A4E6B0E00E94D7
:100F5000410AA92F982F872FA69597958795A69533
:100F6000979587950895CF93DF9300D000D00F9287
:100F7000CDB7DEB7942F49835A83462F6B837C838A
:100F80008D839130C8F4369837985130E1F030F1C4
:100F90007130E1F008F14130E0F4359A96B1987F74
:100FA0008D81892B86B9379A0F900F900F900F90F3
:100FB0000F90DF91CF91089599F0923031F7369AE2
:100FC000379A513021F73D9A713021F7339A4130E9
:100FD00020F321F73598E2CF3398DDCF3D98D8CF75
:100FE000369A3798D2CF97B1907E892B87B9369AA7
:100FF00086B1349A81B192B1089597B1907E892BD0
:1010000087B9369A08958430C0F46830B0F441301E
:10101000A9F098F421E001C0220F6A95EAF7209523
:10102000823039F1833031F0813039F18AB3822353
:101030008ABB089581B3822381BB089521E001C05A
:10104000220F6A95EAF7823061F0833031F0813007
:1010500061F08AB3822B8ABB089581B3822B81BB56
:10106000089584B3822B84BB089587B3822B87BBFA
:10107000089584B3822384BB089587B3822387BBFA
:101080000895823049F020F4811541F067BB08953E
:10109000833031F461BB089564BB08956ABB089541
:1010A00008958430C0F46830B0F44130A9F098F469
:1010B00021E001C0220F6A95EAF72095823039F1CC
:1010C000833031F0813039F18BB382238BBB0895AB
:1010D00082B3822382BB089521E001C0220F6A956A
:1010E000EAF7823061F0833031F0813061F08BB308
:1010F000822B8BBB089582B3822B82BB089585B36C
:10110000822B85BB089588B3822B88BB089585B355
:10111000822385BB089588B3822388BB08958230DB
:1011200049F020F4811541F068BB0895833031F413
:1011300062BB089565BB08956BBB08950895411582
:101140005105A1F0843090F4683080F4823099F039
:10115000833079F0813059F486B390E002C09595E0
:1011600087956A95E2F78170FA018083089589B3C3
:10117000F4CF80B3F2CF83B3F0CF6115710571F076
:10118000823091F030F4811559F086B3FB018083F1
:101190000895833021F480B3FB018083089508957E
:1011A00089B3FB018083089583B3FB018083089595
:1011B0009DEF980F933020F4843019F0853061F062
:1011C0000895643089F06530B1F485B7877F85BFB5
:1011D00085B7846085BF08956630F9F0673081F780
:1011E00084B7806484BF089585B7877F85BF85B73E
:1011F0008B7F85BF0895663039F485B7886085BFD9
:1012000085B78B7F85BF08956730D1F685B7886035
:1012100085BF85B7846085BF089584B78F7B84BF01
:101220000895843061F0833021F48BB780648BBFE4
:101230000895853019F48BB780628BBF08958BB702
:1012400080688BBF0895843061F0833021F48BB7C0
:101250008F7B8BBF0895853019F48BB78F7D8BBF43
:1012600008958BB78F778BBF08958FB780688FBF36
:1012700008958FB78F778FBF0895CF93DF9300D0F6
:1012800000D00F92CDB7DEB749835A836B83272FE7
:101290007C838D8313BE413098F483B78F7B83BFEB
:1012A00083B7877F83BF8A8182BF89B7816089BF07
:1012B0000F900F900F900F900F90DF91CF910895A6
:1012C000B9F0423041F1433099F783B7806483BF6E
:1012D00083B7877F83BF743031F1253071F11CBE35
:1012E0000F900F900F900F900F90DF91CF91089576
:1012F00083B78F7B83BF83B7886083BF8B818CBFAD
:1013000089B7826089BF0F900F900F900F900F9058
:10131000DF91CF91089583B7806483BF83B78860DE
:1013200083BF7430D1F683B78F7E83BF83B780626B
:1013300083BF20930F011CBED3CF83B78061F5CF4D
:10134000811521F093B7987F892B83BF089583B7C8
:10135000887F83BF089582BF08958CBF0895813030
:1013600040F46115710531F060930D0170930E0129
:10137000089509F0089561157105E1F360930B017B
:1013800070930C010895853640F490910F019430CC
:1013900029F020E0953079F02CBF0895282F30E017
:1013A000AFEFB0E00E94410A24E640E050E00E9426
:1013B000500A2CBF0895282F30E0AFEFB0E00E9414
:1013C000410A24E640E050E00E94500A20952CBFDC
:1013D00008951F920F920FB60F9211242F933F93EF
:1013E0004F935F936F937F938F939F93AF93BF932D
:1013F000EF93FF93E0910B01F0910C010995FF91A0
:10140000EF91BF91AF919F918F917F916F915F917C
:101410004F913F912F910F900FBE0F901F901895F5
:101420001F920F920FB60F9211242F933F934F9359
:101430005F936F937F938F939F93AF93BF93EF933C
:10144000FF93E0910D01F0910E010995FF91EF914D
:10145000BF91AF919F918F917F916F915F914F91CC
:101460003F912F910F900FBE0F901F90189561EA3A
:1014700070E081E00E94AF090E94B1000E94490023
:10148000FDCFA29FB001B39FC001A39F700D811D2E
:101490001124911DB29F700D811D1124911D08957D
:1014A000A1E21A2EAA1BBB1BFD010DC0AA1FBB1F68
:1014B000EE1FFF1FA217B307E407F50720F0A21BDA
:1014C000B30BE40BF50B661F771F881F991F1A9447
:1014D00069F760957095809590959B01AC01BD0171
:0814E000CF010895F894FFCF3D
:1014E80001020100FA000001010000030123192D87
:1014F8000237383934353631323323302A54656D62
:1015080070203A20002020202020202020004D6F2D
:10151800697374203A200053797374656D2053748D
:10152800617274696E670054656D703A20004D6F82
:101538006973743A2000313A4D617820323A4D6926
:101548006E20333A4D737400343A54696D65203512
:101558003A4D6F646520433A457800456E7465726C
:0C156800204E65772056616C75653A00D6
:00000001FF
